:020000040001F9
:1080000080230010018201001F8201001D820100F7
:1080100021820100238201002582010027820100C4
:1080200000000000000000000000000029820100A4
:108030002B820100000000002D8201002F82010030
:108040003182010031820100318201003182010060
:108050003182010031820100318201003182010050
:108060003182010031820100318201003182010040
:108070003182010031820100318201003182010030
:108080003182010031820100318201003182010020
:108090003182010031820100318201003182010010
:1080A00031820100318201003DA7010031820100CF
:1080B00031820100318201003182010031820100F0
:1080C00031820100318201003182010031820100E0
:1080D00031820100318201003182010031820100D0
:1080E00031820100318201003182010031820100C0
:1080F00031820100318201003182010031820100B0
:10810000318201003182010031820100318201009F
:10811000318201003182010031820100318201008F
:10812000318201003182010031820100318201007F
:10813000318201003182010031820100318201006F
:10814000318201003182010031820100318201005F
:10815000318201003182010031820100318201004F
:10816000318201003182010031820100318201003F
:10817000318201003182010031820100318201002F
:10818000318201003182010031820100318201001F
:1081900000000000000000000000000000000000DF
:1081A00000000000000000000000000000000000CF
:1081B00000000000000000000000000000000000BF
:1081C00000000000000000000000000000000000AF
:1081D000000000000000000000000000000000009F
:1081E000000000000000000000000000000000008F
:1081F000000000000000000000000000000000007F
:108200004EF68850CEF20000016841F47001016022
:10821000BFF34F8FBFF36F8F06480047FEE7FEE7BF
:10822000FEE7FEE7FEE7FEE7FEE7FEE7FEE7FEE726
:10823000FEE700003982010000F002F800F05AF871
:108240000AA090E8000C82448344AAF10107DA45B1
:1082500001D100F04FF8AFF2090EBAE80F0013F0A9
:10826000010F18BFFB1A43F001031847AC6B000065
:10827000DC6B00000A4410F8014B14F00F0508BF36
:1082800010F8015B240908BF10F8014B6D1E05D0E2
:1082900010F8013B6D1E01F8013BF9D1641E03D0BB
:1082A000641E01F8015BFBD19142E4D370470000EA
:1082B000103A24BF78C878C1FAD8520724BF30C812
:1082C00030C144BF04680C607047000000230024E4
:1082D00000250026103A28BF78C1FBD8520728BFD6
:1082E00030C148BF0B6070471FB506F0C0F81FBD16
:1082F00010B510BD00F066F81146FFF7F5FF03F06A
:108300001DFC00F084F803B4FFF7F2FF03BC00F09B
:108310008BF8000002480349014A034B70470000F4
:108320008013001080230010801300104FF0000213
:108330000429C0F0128010F0030C00F01B80CCF177
:10834000040CBCF1020F18BF00F8012BA8BF20F8E5
:10835000022BA1EB0C0100F00DB85FEAC17C24BF39
:1083600000F8012B00F8012B48BF00F8012B7047E3
:108370004FF0000200B5134694469646203922BFBE
:10838000A0E80C50A0E80C50B1F12001BFF4F7AF09
:10839000090728BFA0E80C5048BF0CC05DF804EBEB
:1083A000890028BF40F8042B08BF704748BF20F859
:1083B000022B11F0804F18BF00F8012B7047704757
:1083C00070477047754600F02BF8AE4605006946C9
:1083D000534620F00700854618B020B5FFF79AFFF6
:1083E000BDE820404FF000064FF000074FF00008B6
:1083F0004FF0000BAC46ACE8C009ACE8C009ACE8F3
:10840000C009ACE8C00921F007018D46704710B5DE
:108410000446AFF300802046BDE81040FFF773BF6D
:1084200000487047F802001001491820ABBEFEE773
:10843000260002007047000080B584B0029040F230
:108440002400C1F2000000680130F0B9FFE740F2FB
:108450002403C1F2000340F2C4410122104600F09F
:10846000FFFC0190019840B9FFE740F22400C1F2FF
:1084700000000068013038B9FFE740F22401C1F282
:10848000000100200860FFE7FFE7029850B1FFE716
:1084900040F22400C1F20000006802990860002048
:1084A000039002E006200390FFE7039804B080BD2C
:1084B00081B08DF803009DF90300002812D4FFE776
:1084C0009DF9031001F01F02012090404A094EF26D
:1084D0008011CEF2000141F82200BFF34F8FBFF3AD
:1084E0006F8FFFE701B0704781B08DF803009DF9F1
:1084F000030000280ED4FFE79DF9031001F01F02CE
:10850000012090404A094EF20011CEF2000141F8DC
:108510002200FFE701B0704781B08DF803009DF99C
:10852000030000280ED4FFE79DF9031001F01F029D
:10853000012090404A094EF20011CEF2000141F8AC
:108540002200FFE701B0704782B08DF8070000916C
:108550009DF9070000280AD4FFE7009840019DF923
:1085600007104EF20042CEF2000288540BE0009851
:1085700040019DF8071001F00F014EF61452CEF2A3
:1085800000028854FFE702B07047000082B08DF807
:10859000070000919DF9070000280AD4FFE7009822
:1085A00040019DF907104EF20042CEF200028854BD
:1085B0000BE0009840019DF8071001F00F014EF606
:1085C0001452CEF200028854FFE702B07047000058
:1085D00080B584B040F64431C1F20001002001F0C2
:1085E000E5FE002841D1FFE740F64430C1F200002B
:1085F00000680022114601F085FFB0BBFFE740F69E
:108600004430C1F2000000684EF21C71C0F201015A
:1086100001F030FD48BBFFE740F64430C1F20000F6
:10862000006869464FF480620A6040F64C71C1F2FE
:10863000000140F64C33C1F2000301F0ADFCA0B9DB
:10864000FFE740F21C00C1F2000001683C2000F08E
:1086500057FB50B9FFE740F21800C1F20000016873
:108660002F2000F04DFB20B1FFE74FF0FF300390CB
:1086700016E048F64500C0F2010002F0B7F80F20FE
:1086800002900421FFF760FF0298FFF72DFF40F2F0
:108690002001C1F200010320087000200390FFE7D1
:1086A000039804B080BD000080B582B040F2200085
:1086B000C1F20000007801460091022808D3FFE7CC
:1086C0000098022808D0FFE70098032808D00BE0A4
:1086D00000F012F801900CE000F066F8019008E05C
:1086E000FFF776FF019004E0FFE74FF0FF300190C5
:1086F000FFE7019802B080BD80B582B041F208006A
:10870000C4F202000068000DC007E0B1FFE740F6C8
:108710007C20C4F20C000068C007A0B1FFE76846E7
:1087200000F08CF99DF80000C00600280AD4FFE78D
:108730000120102100F02EFA20B1FFE74FF0FF30AA
:10874000019023E003E04FF0FF3001901EE040F283
:108750002001C1F200010120087000F017FB44F273
:108760004020C0F20F0001F0CBFB40F2E430C1F238
:10877000000001681C2000F0C3FA48F6F550C0F272
:10878000010002F033F800200190FFE7019802B0E9
:1087900080BD000080B500F0EFFC0021084600F02D
:1087A000C1FB01F09FF980BD80B582B040F6443135
:1087B000C1F20001002001F0F9FD60BBFFE740F6C7
:1087C0004430C1F2000000680022114601F09AFE18
:1087D00008BBFFE740F64430C1F2000000684EF2EB
:1087E0001C71C0F2010101F045FCA0B9FFE740F2A5
:1087F0001C00C1F2000001683C2000F081FA50B971
:10880000FFE740F21800C1F2000001682F2000F0DD
:1088100077FA20B1FFE74FF0FF3001900EE040F211
:108820002001C1F200010220087048F64500C0F2A4
:10883000010001F0DBFF00200190FFE7019802B08A
:1088400080BD000080B58CB00B9000200A9009908C
:10885000FFE70B980A99405C20B1FFE70A980130C6
:108860000A90F6E700208DF804000B9902910A990E
:10887000039109A904914FF0FF31059106900790EB
:10888000089040F64430C1F20000006801A901F0F0
:1088900027FF09980A99884202D0FFE7FFE7FEE721
:1088A0000CB080BD80B583B001900091019820B1DB
:1088B000FFE70098222803D3FFE70620029018E084
:1088C0000199009A4EF2A840C0F2010000EB021E8E
:1088D0001201DEF80430DEF808C0DEF80CE0C1F862
:1088E0000CE0C1F808C04B6080580860002002907E
:1088F000FFE7029803B080BD80B584B0039000F01C
:1089000039FA02904FF090410191086820F44070CC
:108910000860029800F036FA0199039B18785A789B
:108920009B7803F001030001C0B240EA430002F06B
:10893000030240EA022040F20042C0F2100210435B
:108940000860002004B080BD4FF09041086840F0FE
:10895000010008600821C4F60001086840F0010029
:10896000086000207047000080B582B0019000F0E0
:1089700001FA00900120002100F034F8019808B3BA
:10898000FFE7019843788178C278007900F0010010
:1089900003F0010340EA430002F00F0240EA022024
:1089A00001F01F0140EA01405021C4F600010860B7
:1089B0000198027940F20001C1F200010A710068D9
:1089C000086005E05021C4F6000106200860FFE7BA
:1089D0000020C4F2FF700068009800F0D3F9002076
:1089E00002B080BD80B584B08DF80B0001919DF878
:1089F0000B0001460091032816D80099DFE801F02A
:108A00000502090D02F062FC11E0002002F076FC84
:108A10000DE00020FFF7A8FF09E040F20000C1F2DE
:108A20000000FFF7A1FF02E00620039002E0002013
:108A30000390FFE7039804B080BD000080B586B0C6
:108A4000049041F20800C4F202000068000DC00763
:108A500040B1FFE740F67C20C4F20C000068C0077C
:108A600018B9FFE7072005900DE002A800F00EF806
:108A7000019002980399052203F018F80499086000
:108A800001980590FFE7059806B080BD80B582B0DB
:108A90000190019840F22C01C1F200010968022204
:108AA00002F004FB002002B080BD000080B588B059
:108AB0008DF81B000593049240F23000C1F20000D3
:108AC00001686846022202F0F1FA04980599009ABA
:108AD000019B19401040084318B1FFE70720079099
:108AE00055E040F22C00C1F20000016802A8022209
:108AF00002F0DCFA9DF81B00C007C8B1FFE702983E
:108B00000399DDF810C0DDF814E021EA0E0120EA37
:108B10000C0040F21002C1F200021368526802EA2F
:108B20000E0203EA0C03184411440391029018E06A
:108B300002980399DDF810C0DDF814E021EA0E0177
:108B400020EA0C0040F20802C1F2000213685268E9
:108B500002EA0E0203EA0C03184411440391029046
:108B6000FFE740F22C00C1F20000006802A90222D7
:108B700002F09CFAFFE740F67C20C4F20C0000688B
:108B8000C00708B9FFE7F6E700200790FFE707985E
:108B900008B080BD80B586B08DF81300039141F216
:108BA0000800C4F202000068000DC00740B1FFE7F2
:108BB00040F67C20C4F20C000068C00718B9FFE73B
:108BC000072005900FE00398072102F02DFF019187
:108BD0000090009A019B9DF8130000F00100FFF740
:108BE00065FF0590FFE7059806B080BD80B584B0AD
:108BF000039003984001029041F20000C4F2020089
:108C00000068C0F3C100022806D1FFE702984000C7
:108C100002901520019002E00F200190FFE70298DA
:108C2000019988420CD9FFE701990298401A0290F5
:108C30004EF2F460C0F20100416A02988847FFE7F3
:108C400004B080BD80B586B0049003910292019378
:108C5000FFE703980068029908400199884203D110
:108C6000FFE7002005900DE00498411E049120B11B
:108C7000FFE70120FFF7BAFF00E000E0E9E704208A
:108C80000590FFE7059806B080BD000080B586B06E
:108C900084460898CDF810C00391029201938DF894
:108CA0000300FFE79DF80300C00760B1FFE70398EA
:108CB0000068029908400199884203D1FFE700202B
:108CC00005901AE00BE003980068029908400199AA
:108CD000884203D0FFE7002005900EE0FFE70498EC
:108CE000411E049120B1FFE70120FFF77FFF00E064
:108CF00000E0D7E704200590FFE7059806B080BDA7
:108D000084B0029101900020C4F20100009001980B
:108D1000802803D3FFE70520039027E09DF8090092
:108D2000C0F38100022812DBFFE701994A094EF2E5
:108D30002870C0F2010050F8220001F01F01C84065
:108D4000C00718B9FFE7072003900FE0FFE740F2E4
:108D50000021C4F20101732008600298009A019B6F
:108D600042F82300002008600390FFE7039804B056
:108D700070470000EFF3108072B67047EFF3108079
:108D800062B6704780F31088704700004EF6FC51C1
:108D9000CEF20001086840F080700860FFE74EF6F0
:108DA000FC50CEF200000068C001002801D4FFE7AB
:108DB000F5E740F6B071CEF200014CF65560CCF20A
:108DC000AC50086040F64061CEF200010F20086010
:108DD00040F60061CEF200014FF0FF30086040F62F
:108DE0008061CEF2000140F21150C0F2150008601F
:108DF0007047000080B582B0019000200090FFE72E
:108E000001980099405C20B1FFE700980130009084
:108E1000F6E7FFE7009858B1FFE70198411C019180
:108E20000178002000F006F8009801380090F1E782
:108E300002B080BD83B002908DF8071002994FF008
:108E4000604000EB81000090FFE70098006808B9DF
:108E5000FFE7FAE79DF807000099087003B0704734
:108E600088B0069005910492039300200290069822
:108E7000B8B9FFE705990020B0EB512F07D1FFE704
:108E8000059804990844B0F5007F03D9FFE7022054
:108E9000079043E005994FF0844000EB810000907B
:108EA00024E0069801281DD1FFE70598B0F5906FE2
:108EB0000CD3FFE70598400A022807D8FFE705987A
:108EC00004990844B0F5C06F03D9FFE7022007906A
:108ED00024E0059942F20000C4F2002000EB81007A
:108EE000009002E00120079018E0FFE700200190C9
:108EF000FFE70198049988420DD2FFE70098011D11
:108F00000091006803990A1D03920860FFE7019829
:108F100001300190EDE702980790FFE7079808B04D
:108F20007047000080B588B08DF81B0005910020C7
:108F3000049003909DF81B0001460091042800F264
:108F4000F3800099DFE801F003B4CDDDE40003A86D
:108F5000FFF772FA0398022837D8FFE740F278311A
:108F6000C4F20201086820F0F850086040F258315D
:108F7000C4F20201086820F4F800086040F24432AC
:108F8000C4F2020210680A2363F31C6010601068C8
:108F900063F3CE20106008680F2262F30C20086093
:108FA00040F25431C4F20201086840F4F010086045
:108FB00040F26031C4F20201086862F39A5008601E
:108FC000086840F4F0100860FFE740F24831C4F24E
:108FD000020108680A2262F39D600860086862F373
:108FE0005030086040F25C31C4F20201086840F081
:108FF00070700860086840F4F050086040F28031FA
:10900000C4F20201086840F000400860086840F0BF
:109010008040086040F27031C4F202010868C0F379
:10902000055040F22802C1F200021060086820F0EA
:109030007C70086040F23C31C4F2020107200860F5
:10904000039802280ED8FFE740F24031C4F2020133
:10905000086820F0707008600868012262F38A10C6
:109060000860FFE7039806280FD3FFE740F23C3182
:10907000C4F202010F20086040F2B011C4F20201F4
:10908000086820F018000860FFE741F20011C4F200
:109090000201086840F00100086040F27831C4F233
:1090A0000201086840F00040086001F04FFF3EE018
:1090B00000208DF8070014200DF1070100F096FB49
:1090C0009DF80700C00758B1FFE7142000F0A2FA8E
:1090D0000290029818B1FFE7029807902AE0FFE794
:1090E00025E040F22411C4F202010868202262F354
:1090F0008700086040F22011C4F2020101200860DC
:1091000015E041F20401C4F20201002008600EE003
:10911000059840B1FFE740F23C70C1F200000068E2
:1091200005990860FFE7FFE706200490FFE7049831
:109130000790FFE7079808B080BD000080B584B0B5
:109140008DF80F000291002001909DF80F0001465C
:10915000009120B1FFE70098012805D009E00298AE
:1091600002F0DAF9019004E0029802F08DFA019021
:10917000FFE7019804B080BD80B584B041F20800DB
:10918000C4F202000068C0F3005040F21C71C1F24A
:10919000000108704EF2C860C0F2010000F02CF926
:1091A0004EF2CE60C0F2010000F04AFB44F24401EE
:1091B000C4F200010191086840F47C00086041F2AB
:1091C0004011C4F2020100200090086041F24411F5
:1091D000C4F20201086041F24811C4F202010860C1
:1091E00041F24C11C4F20201086041F25011C4F284
:1091F0000201086041F25411C4F20201086041F218
:109200005811C4F20201086041F25C11C4F202017B
:10921000086041F26011C4F20201086041F2641179
:10922000C4F20201086041F26811C4F20201086050
:1092300041F26C11C4F20201086041F27011C4F2F3
:109240000201086041F27411C4F20201086041F2A7
:109250007811C4F20201086041F27C11C4F20201EB
:10926000086041F28011C4F20201086041F28411E9
:10927000C4F20201086041F28811C4F202010860E0
:109280004EF2A140C0F20100FFF76EFB6420FFF731
:10929000ADFC0199086840F04000086040F27C3164
:1092A000C4F20201086848F20002C0F2FE52104304
:1092B000086040F24441C4F202010868042262F3EB
:1092C0000F20086040F21D70C1F200000078C00756
:1092D000C0BBFFE740F26C31C4F202010868C0F382
:1092E000055040F22872C1F2000210608820C4F2DA
:1092F0000200026802F03F0240F23073C1F2000344
:109300001A600968890E40F22C72C1F200021160E5
:109310000068C0F3854040F23471C1F2000108607A
:109320004420C4F202000068C0F3C61040F2387155
:10933000C1F20001086040F21D71C1F2000101207C
:109340000870FFE740F22870C1F20000006840F2A8
:109350002471C1F20001086040F23070C1F20000D7
:10936000006840F22071C1F20001086040F6483107
:10937000C1F20001002008604FF49261012202ABAB
:109380001046FFF76DFD0390039888BBFFE79DF83B
:10939000080010F0060F07D1FFE740F64831C1F290
:1093A00000010320086022E09DF8080080070028E3
:1093B00007D4FFE740F64831C1F2000106200860FB
:1093C00014E09DF808004007002807D4FFE740F6A6
:1093D0004831C1F200010920086006E040F648313A
:1093E000C1F2000100200860FFE7FFE7FFE7FFE7A9
:1093F000002004B080BD000080B586B004900498C1
:1094000000780146029140B1FFE70298012811D08F
:10941000FFE7029802281AD026E041F21401C4F2B4
:109420000201086820F010000860086820F02000A1
:10943000086019E041F21401C4F20201086840F02A
:1094400010000860086820F0200008600CE041F27D
:109450001401C4F20201086840F0100008600868B6
:1094600040F020000860FFE70498827841F2140081
:10947000C4F20200016862F30201016004990979F3
:1094800001F00102016821F0080141EAC201016016
:109490000368694601200860052041F21801C4F202
:1094A00002013F22FFF7F2FB0390039818B1FFE798
:1094B00003980590AAE041F21800C4F20200006887
:1094C000C0F3001041F21401C4F202010968C1F3B3
:1094D0000011884233D1FFE741F21800C4F20200C4
:1094E0000068C0F3401041F21401C4F2020109689F
:1094F000C1F34011884222D1FFE741F21800C4F2C3
:109500000200006800F0070041F21401C4F20201F9
:10951000096801F00701884211D1FFE741F2180004
:10952000C4F202000068C0F3C00041F21401C4F2AA
:1095300002010968C1F3C001884203D0FFE701209E
:10954000059063E004984078C00748B1FFE741F216
:109550001C01C4F20201086820F01000086008E055
:1095600041F21C01C4F20201086840F010000860DA
:10957000FFE704984079C00748B1FFE741F21C01BA
:10958000C4F20201086820F00800086008E041F217
:109590001C01C4F20201086840F008000860FFE7FF
:1095A0000498C0780146019107282CD80199DFE87A
:1095B00001F0040D2A172A2A2A2141F21C01C4F2C3
:1095C0000201086840F0070008601CE041F21C013D
:1095D000C4F202010868062262F30200086012E089
:1095E00041F21C01C4F202010868042262F3020085
:1095F000086008E041F21C01C4F20201086820F092
:1096000007000860FFE700200590FFE7059806B017
:1096100080BD000080B58AB08DF823009DF823102E
:1096200003A8FFF73FF90790079818B1FFE70798DD
:10963000099051E0039800680499084203D1FFE7BC
:109640000020099048E09DF82300142823D1FFE76B
:1096500040F6E070C4F20C000068C0281AD1FFE7A1
:1096600001F004FE0790079818B1FFE707980990EA
:1096700032E040F64830C1F20000006848B1FFE730
:1096800040F64830C1F200000168002001F024FDDE
:10969000FFE7FFE7FFE7FFF76DFB02900399049AEE
:1096A0000868904308600298FFF76CFB0599069BD9
:1096B0006A460020106005201A46FFF7E7FA079077
:1096C000079818B9FFE70798099005E09DF823006F
:1096D00002F096FD0990FFE709980AB080BD0000EE
:1096E00080B58AB08DF823009DF8231003A8FFF7FA
:1096F000D9F80790079818B1FFE70798099071E02B
:10970000039800680499084203D0FFE700200990FD
:1097100068E09DF82300142811D1FFE740F6483097
:10972000C1F20000006848B1FFE740F64830C1F2DE
:1097300000000168012001F0CFFCFFE7FFE7FFF721
:1097400019FB02900399049A086810430860029874
:10975000FFF718FB0599069B6A460120106005205B
:109760001A46FFF793FA07900798C8B1FFE79DF8EC
:109770002300142811D1FFE740F64830C1F2000061
:10978000006848B1FFE740F64830C1F200000168C8
:10979000002001F0A1FCFFE7FFE70798099021E016
:1097A0009DF82300142811D1FFE7642041F61071C1
:1097B000C4F20C0101231A46FFF744FA07900798F8
:1097C00018B1FFE7079809900CE0FFE705980068DB
:1097D0000699084203D0FFE70020099002E001202B
:1097E0000990FFE709980AB080BD000080B588B0F5
:1097F0008DF81B000591059818B9FFE70620079022
:109800001AE00599002008709DF81B106846FFF7C4
:1098100049F80490049818B1FFE7049807900BE00A
:109820000298006803990840002818BF0120059994
:10983000087000200790FFE7079808B080BD00007F
:1098400080B586B004900498027841F22400C4F2F6
:109850000200016862F301010160036869460120AA
:109860000860052041F22801C4F202010322FFF73B
:109870000DFA0390039818B1FFE70398059074E080
:1098800041F22800C4F20200006800F0030041F237
:109890002401C4F20201096801F00301884203D0E7
:1098A000FFE70120059060E00498427841F22C0126
:1098B000C4F202010191086802F0030220F00C00DA
:1098C00040EA8200086004988278086802F0030287
:1098D00020F0C00040EA821008600498C27808684E
:1098E00002F0030220F4407040EA0220086004986D
:1098F0000279086802F0030220F0300040EA02100A
:109900000860049840790146029103282AD80299F8
:10991000DFE801F0020B151F41F22C01C4F2020135
:10992000086840F0030008601CE041F22C01C4F21A
:1099300002010868022262F30100086012E041F2AD
:109940002C01C4F202010868012262F301000860E0
:1099500008E041F22C01C4F20201086820F0030083
:109960000860FFE700200590FFE7059806B080BD7E
:1099700084B0039002910192009303990020086043
:10998000039948600399886000980399C86001981A
:109990000399086102980399486104B07047000078
:1099A00080B588B0079006910592059807990969D6
:1099B0004843039000208DF80B0006980490FFF7B1
:1099C000D9F901900799C8688968401A03998842B3
:1099D0002BD3FFE700200090FFE70098039988420F
:1099E0001AD2FFE7069840B1FFE704980099405C5F
:1099F000079A516912688854FFE707980068431C6A
:109A00000799CA68B3FBF2F000FB12300860FFE769
:109A1000009801300090E0E7039A079988681044A5
:109A2000886001208DF80B0003E000208DF80B000A
:109A3000FFE70198FFF7A6F99DF80B0000F0010081
:109A400008B080BD80B588B0079006910592059852
:109A5000079909694843039000208DF80B00069888
:109A60000490FFF787F9019007988068039988426E
:109A70002BD3FFE700200090FFE70098039988426E
:109A80001AD2FFE7069840B1FFE70799486949688D
:109A9000405C0499009A8854FFE707984068431C8B
:109AA0000799CA68B3FBF2F000FB12304860FFE789
:109AB000009801300090E0E7039A07998868801ABF
:109AC000886001208DF80B0003E000208DF80B006A
:109AD000FFE70198FFF756F99DF80B0000F0010031
:109AE00008B080BD44F60001C4F20001086840F0EF
:109AF000100008600020704783B00190019800902A
:109B0000019888B1FFE701980068000EC00758B1BE
:109B1000FFE70198006820F07F4041F2B031C0F2C9
:109B20008301884203D0FFE70220029009E00099F8
:109B3000086820F08070086000990020486002905A
:109B4000FFE7029803B0704780B584B00290029896
:109B50000190029888B1FFE702980068000EC007E4
:109B600058B1FFE70298006820F07F4041F2B03121
:109B7000C0F28301884203D0FFE70220039034E063
:109B800001980068400EC00718B9FFE70020039055
:109B90002BE00199086820F0007008601A20FEF799
:109BA00087FC019841683822C4F207020020009027
:109BB0008850019949683422C4F2070288500198FC
:109BC00041683022C4F207024FF0FF30885040F263
:109BD0005041C4F20201086820F0030008600A2026
:109BE00000F0C2FD00980390FFE7039804B080BD29
:109BF00083B001900091019818B1FFE70520029011
:109C000037E0009818B9FFE70620029031E001988C
:109C10005421414340F2E830C1F200004058000EA8
:109C2000C00718B1FFE70720029022E001985421F5
:109C300000FB01F340F2E832C1F20002D05840F0DC
:109C40008070D050019800FB01F3D05841F2B03C35
:109C5000C0F2830C6CF31700D050019800FB012375
:109C60005860019800FB01200099086000200290D4
:109C7000FFE7029803B0704785B003900291039804
:109C80000190039888B1FFE703980068000EC007B1
:109C900058B1FFE70398006820F07F4041F2B031EF
:109CA000C0F28301884203D0FFE70220049016E04F
:109CB00001980068400EC00718B9FFE7072004901C
:109CC0000DE0019840680090029B00993422C4F294
:109CD000070288589843885000200490FFE70498B2
:109CE00005B0704780B586B004908DF80F108DF8E0
:109CF0000E2004980290049888B1FFE70498006849
:109D0000000EC00758B1FFE70498006820F07F40BC
:109D100041F2B031C0F28301884203D0FFE7022054
:109D2000059090E09DF80F000146019128B1FFE7F2
:109D300001980138022842D37FE09DF80E00C00749
:109D400048B1FFE7029890F83C00C00718B9FFE758
:109D50000720059077E0029840681530C0B2FFF701
:109D6000BFFC9DF80E00C00740B3FFE702984168B2
:109D7000006C2822C4F20702885002984168406CA7
:109D80002C22C4F20702885002984168806C342269
:109D9000C4F20702885002984168C06C3822C4F2AD
:109DA0000702885002984168006D3C22C4F2070205
:109DB00088500299002081F83C00FFE740E09DF8C0
:109DC0000E00C00768B3FFE7029840682821C4F27C
:109DD0000701405802990864029840682C21C4F297
:109DE0000701405802994864029840683421C4F23F
:109DF0000701405802998864029840683821C4F2EB
:109E0000070140580299C864029840683C21C4F296
:109E100007014058029908650299012081F83C0029
:109E2000FFE704984FF0FF31FFF726FF02984068E4
:109E30001530C0B2FFF7EEFB02E00620059002E00D
:109E400000200590FFE7059806B080BD85B003901F
:109E50008DF80B1003980190039888B1FFE70398E1
:109E60000068000EC00758B1FFE70398006820F0B3
:109E70007F4041F2B031C0F28301884203D0FFE756
:109E80000220049038E001980068400EC00718B91D
:109E9000FFE7072004902FE00198006900909DF8EB
:109EA0000B0008280AD1FFE7019841682822C4F274
:109EB0000702885840F02000885016E00198416859
:109EC0002822C4F20702885820F0200088509DF80C
:109ED0000BC001984168885820F00200831CBCF137
:109EE000040F08BF18468850FFE79DF80B00009943
:109EF000C87200200490FFE7049805B07047000086
:109F000080B582B0019040F20431CEF2040100200D
:109F100008600421CEF20401012008600198B0F528
:109F2000614F08D3FFE7019848F28141C0F21E015A
:109F3000884206D3FFE744F24020C0F20F000190B0
:109F4000FFE7019946F60040C0F2DC20B0FBF1F0DB
:109F500001380090BDF800001021CEF20401086025
:109F6000F020CEF204000222026040F60071CEF230
:109F700004010020086040F25021C4F20201086888
:109F800062F343000860086840F001000860642044
:109F9000FEF72CFE02B080BD80B588B0DDF828C089
:109FA0000690059104920393069802900020019078
:109FB000069888B1FFE706980068000EC00758B100
:109FC000FFE70698006820F07F4049F60661C0F27E
:109FD000EA01884203D0FFE70220079046E0059897
:109FE000A0B1FFE7049888B1FFE70298012280F84A
:109FF0007C20029880300599049BFFF7B9FC0198FA
:10A0000018B1FFE70198079030E00AE002990020BC
:10A0100081F87C00019818B1FFE70198079025E0CE
:10A02000FFE70398A0B1FFE70A9888B1FFE702981D
:10A03000012280F8982002989C3003990A9BFFF730
:10A0400097FC019818B1FFE7019807900EE00AE02D
:10A050000299002081F89800019818B1FFE7019853
:10A06000079003E0FFE700200790FFE7079808B09C
:10A0700080BD000080B58AB00890079108980690CE
:10A080000698406A0590089888B1FFE7089800682C
:10A09000000EC00758B1FFE70898006820F07F4025
:10A0A00049F60661C0F2EA01884203D0FFE70220C8
:10A0B0000990FDE0059802034CF23001C4F2010161
:10A0C0000020885005980203885840F00800885006
:10A0D000079800684EF26131C0F2160188420CD335
:10A0E000FFE7059802034CF23001C4F201018858E1
:10A0F000052363F3061088500BE0059802034CF229
:10A100003001C4F201018858012363F3061088501E
:10A11000FFE7059802034CF23001C4F201018858B0
:10A1200020F00100885005980203885820F4007040
:10A13000885005980203885820F48070885005984C
:10A1400007990968069A283200F02CFF04900498B9
:10A1500018B1FFE704980990AAE0059802034CF2B1
:10A160003001C4F20101885820F4804088500598DD
:10A170000203885820F40040885007980389059806
:10A1800002038858184388500020039002900798D3
:10A1900040790146019140B1FFE70198012809D0BB
:10A1A000FFE70198022809D00CE00120039000206D
:10A1B000029007E001200390029003E0002003904A
:10A1C0000290FFE7059802034CF22C01C4F2010152
:10A1D0000091885820F001008850039B05980203E5
:10A1E000885803F0010320F0020040EA4300885041
:10A1F000029B05980203885803F0010320F0040035
:10A2000040EA8300885007988379059802038858AC
:10A2100003F0010320F0080040EAC30088500598CD
:10A220000203885840F01000885007980379059879
:10A230000203885803F0030320F0600040EA431053
:10A24000885005980203885820F0800088500798AD
:10A25000837A059802034CF23401C4F20101885854
:10A2600063F3020088500798C37A05980203885860
:10A2700003F0070320F0380040EAC3008850059837
:10A2800002034CF23001C4F20101885840F0010091
:10A29000885005980203885840F40070885005984B
:10A2A0000203885840F48070885000200990FFE72E
:10A2B00009980AB080BD000089B008900791069205
:10A2C0000593002004900290089801900198406A3C
:10A2D0000090FFE704980699884226D2FFE700988D
:10A2E00001034CF21800C4F2010040580009C007F5
:10A2F00008B1FFE719E0009801034CF20000C4F236
:10A300000100405803909DF80D00000720B1FFE7C1
:10A310004FF00060029008E003980799049A531CDC
:10A3200004938854FFE7FFE7D4E7059820B1FFE7DF
:10A33000049805990860FFE7029809B0704700008B
:10A3400087B006900591049203930020029006982E
:10A3500001900198406A0090FFE7029804998842B2
:10A360001AD2FFE7009801034CF21800C4F2010072
:10A3700040584009C00708B1FFE70DE00598029971
:10A380004A1C0292405C00990A034CF20001C4F29C
:10A3900001018850FFE7E0E7039820B1FFE702984A
:10A3A00003990860FFE7002007B0704786B004906B
:10A3B00003910498042803D3FFE7052005906FE07C
:10A3C000039818B9FFE70620059069E00398006834
:10A3D000B0B1FFE7039800680068000EC00778B1CD
:10A3E000FFE703980068006820F07F4049F60661A7
:10A3F000C0F2EA01884203D1FFE7072005904FE051
:10A400000498B822009200FB02F140F23C43C1F2F2
:10A4100000030193585840F080705850049800FB96
:10A4200002F1585849F6066CC0F2EA0C6CF31700BA
:10A430005850049800FB02314862049800FB023136
:10A44000002002900871049901FB0231886204998E
:10A4500001FB023181F82C00049901FB023181F8E3
:10A460005400049901FB023181F87C00049901FB3E
:10A47000023181F89800049901FB02318867049940
:10A4800001FB02310865049901FB023C01218CF8B3
:10A49000B410049901FB0231039A11600590FFE7A3
:10A4A000059806B07047000085B0039002910398AC
:10A4B00001900198406A0090039888B1FFE70398E3
:10A4C0000068000EC00758B1FFE70398006820F04D
:10A4D0007F4049F60661C0F2EA01884203D0FFE7F7
:10A4E000022004900AE0029800990A034CF2440109
:10A4F000C4F20101885000200490FFE7049805B0E1
:10A500007047000080B588B0069005918DF8132043
:10A51000069803900398406A0290029809308DF8DB
:10A520000700069888B1FFE706980068000EC0078C
:10A5300058B1FFE70698006820F07F4049F60661B1
:10A54000C0F2EA01884203D0FFE702200790C4E08E
:10A550000598009028B1FFE70098013802285BD3E6
:10A56000B5E09DF81300C00740B1FFE703980079FC
:10A57000C00718B9FFE707200790AEE09DF8070075
:10A58000FFF7AEF89DF81300C007002843D0FFE79F
:10A590000398806802990A034CF22001C4F2010179
:10A5A00088500398C06802990A034CF22401C4F24F
:10A5B000010188500398006902990A034CF22801AE
:10A5C000C4F2010188500398406902990A034CF2D1
:10A5D0002C01C4F2010188500398806902990A0392
:10A5E0004CF23001C4F2010188500398C06902990D
:10A5F0000A034CF23401C4F2010188500398006A46
:10A6000002990A034CF23801C4F2010188500399FF
:10A6100000200871FFE75DE09DF81300C0070028E7
:10A6200043D0FFE7029801034CF22000C4F201007E
:10A63000405803998860029801034CF22400C4F248
:10A64000010040580399C860029801034CF22800A9
:10A65000C4F20100405803990861029801034CF2CA
:10A660002C00C4F20100405803994861029801038C
:10A670004CF23000C4F201004058039988610298FE
:10A6800001034CF23400C4F2010040580399C86140
:10A69000029801034CF23800C4F2010040580399BB
:10A6A0000862039901200871FFE703984FF0FF311A
:10A6B000FFF7FAFE029802034CF23001C4F20101E6
:10A6C000002088509DF80700FEF7A4FF02E0062056
:10A6D000079002E000200790FFE7079808B080BDD0
:10A6E00080B584B0029001910198007801460091F4
:10A6F00003281CD80099DFE801F002080E14029824
:10A70000019900F0E5FB039014E00298019900F034
:10A71000A1FB03900EE00298019901F07FFC0390E9
:10A7200008E00298019901F0B3FB039002E00120D8
:10A730000390FFE7039804B080BD000080B582B0AD
:10A7400040F23400C1F2000041683023C4F2070334
:10A75000C958019101994268D1500068019902F0ED
:10A76000ADFF02B080BD000080B582B001900198BD
:10A770004FF47A714843FEF739FA02B080BD000009
:10A7800080B582B001900198FEF730FA02B080BD2A
:10A7900083B080B585B0099308920791039040F289
:10A7A0004070C1F20000006818B9FFE70020049073
:10A7B00016E007A801900399019A40F24470C1F293
:10A7C0000000009000F01CF801460098029140F251
:10A7D0004071C1F200010968884702980490FFE7C0
:10A7E000049805B0BDE8804003B0704781B0009088
:10A7F000009840F24071C1F20001086001B070475A
:10A8000080B59EB01D921C901B91002014900E905C
:10A81000FFE71B980078002800F01283FFE706206E
:10A8200011901B980078252827D0FFE71C98E8B1E5
:10A83000FFE71B9800780A2811D1FFE740F21E704D
:10A84000C1F200000078C00748B1FFE71C99481C1E
:10A850001C900D200870149801301490FFE71B988D
:10A8600000781C994A1C1C920870FFE71B98013065
:10A870001B90149801301490CBE71B9801301B906B
:10A8800000208DF840008DF8410020208DF8420016
:10A890001B980078302807D1FFE730208DF8420060
:10A8A0001B9801301B90FFE71B9815A900F054FD81
:10A8B000139015991B9808441B901B9800787328D7
:10A8C00009D0FFE71398B0F1FF3F04DCFFE71398CE
:10A8D00040421390FFE71B9800782E280DD1FFE728
:10A8E0001B9801301B901B9815A900F035FD1190A5
:10A8F00015991B9808441B90FFE71B9800786C285B
:10A9000010D1FFE71B9801301B901B9800786C2832
:10A9100007D1FFE71B9801301B9001208DF8400004
:10A92000FFE7FFE71B980078463801460B91322875
:10A9300000F273820B99DFE811F0240270027002BA
:10A940007002700270027002700270027002700277
:10A950007002700270027002700270027002BF001A
:10A960007002700270027002700270027002700257
:10A970007002700233006F017002240270027002D4
:10A980006F01700270027002700270027002700239
:10A990007002700247007002190170027002BB0061
:10A9A0001D98011D1D9100688DF843001C9838B159
:10A9B000FFE79DF843001C994A1C1C920870FFE7B2
:10A9C00014980130149036E21D98011D1D91006805
:10A9D0001A901A9803F08EFB0E901398012825DB2D
:10A9E000FFE70E98139988421FD2FFE70E9913983C
:10A9F000401A13901C989DF84210139A01F0D8FB4E
:10AA000013901C9818B1FFE713980A9002E00020F9
:10AA10000A90FFE70A991C9808441C90139914980F
:10AA20000844149000201390FFE7FFE7FFE71A980F
:10AA3000007888B1FFE71C9838B1FFE71A980078D2
:10AA40001C994A1C1C920870FFE71A9801301A9052
:10AA5000149801301490EAE7139840B3FFE7139875
:10AA6000404213900E98139988421FD2FFE70E9927
:10AA70001398401A13901C989DF84210139A01F0F5
:10AA800097FB13901C9818B1FFE71398099002E008
:10AA900000200990FFE709991C9808441C9013991D
:10AAA00014980844149000201390FFE7FFE7C2E1D8
:10AAB00001208DF84100FFE79DF84000C00760B11C
:10AAC000FFE71D98073020F0070000F108011D91F5
:10AAD000016840680791089007E01D98011D1D91CD
:10AAE0000168002007910890FFE7079908981891DE
:10AAF0001990139818B3FFE71898199901F072F993
:10AB000001461398401A13901C989DF84210139A0E
:10AB100001F04EFB13901C9818B1FFE713980690B4
:10AB200002E000200690FFE706991C9808441C905C
:10AB3000139914980844149000201390FFE7189874
:10AB400019991C9A9DF8413003F0010303F026FB8C
:10AB500012901C9828B1FFE712991C9808441C9089
:10AB6000FFE7129914980844149064E19DF840009E
:10AB7000C00760B1FFE71D98073020F0070000F123
:10AB800008011D91016840680491059007E01D9837
:10AB9000011D1D910168002004910590FFE70499B3
:10ABA000059818911990139818B3FFE718981999F8
:10ABB00001F050F901461398401A13901C989DF823
:10ABC0004210139A01F0F4FA13901C9818B1FFE7A1
:10ABD0001398039002E000200390FFE703991C986C
:10ABE00008441C9013991498084414900020139062
:10ABF000FFE7189819991C9A03F030FB12901C98E3
:10AC000028B1FFE712991C9808441C90FFE712999D
:10AC10001498084414900EE19DF84000C00760B1FC
:10AC2000FFE71D98073020F0070000F108011D9193
:10AC3000016840680191029007E01D98011D1D9177
:10AC40000168C81701910290FFE7019902981691D7
:10AC500017901798B0F1FF3F0CDCFFE71698179A92
:10AC600041424FF0000090411891199001208DF859
:10AC70003F0007E0169817991991189000208DF859
:10AC80003F00FFE71398002855D0FFE7189819995F
:10AC900001F0C8F801461398401A13909DF83F0040
:10ACA000C007B0B1FFE71398013813909DF8420038
:10ACB00030280DD1FFE71C9830B1FFE71C99481CE4
:10ACC0001C902D200870FFE7149801301490FFE7C6
:10ACD000FFE71C989DF84210139A01F069FA13904F
:10ACE0001C9818B1FFE71398009002E00020009034
:10ACF000FFE700991C9808441C9013991498084485
:10AD00001490002013909DF83F00C00790B1FFE71A
:10AD10009DF8420020280DD1FFE71C9830B1FFE7D5
:10AD20001C99481C1C902D200870FFE714980130D6
:10AD30001490FFE712E09DF83F00C00768B1FFE7FD
:10AD40001C9830B1FFE71C99481C1C902D200870FE
:10AD5000FFE7149801301490FFE7FFE7189819995E
:10AD60001C9A03F07BFA12901C9828B1FFE7129905
:10AD70001C9808441C90FFE71299149808441490FA
:10AD800059E01C98002847D0FFE71D98073020F0B5
:10AD9000070000F108011D9190ED000B51EC100B24
:10ADA00003F0E6FA0D901C99142008609DED0D0A41
:10ADB0001C98119900F020FD12901298B0F1FF3FFD
:10ADC00021DCFFE71298013030B9FFE742F630602E
:10ADD000C0F230000C9010E01298023030B9FFE75A
:10ADE00042F62360C0F223000C9005E042F63F607B
:10ADF000C0F23F000C90FFE7FFE70C981C99086039
:10AE000003201290FFE712991498084414901299A5
:10AE10001C9808441C90FFE70DE01C9838B1FFE730
:10AE20001B9800781C994A1C1C920870FFE7149824
:10AE300001301490FFE71B9801301B90FFF7E9BC2D
:10AE40001C9820B1FFE71C9900200870FFE71498B8
:10AE50001EB080BD80B586B00490039100200190A3
:10AE6000049800900498039901F012F80290029857
:10AE700018B1FFE70298059027E0FFE7009890F8E7
:10AE80002C00C007F0B1FFE7049801F03DF84FF443
:10AE90007A70FDF7ABFE03980069013088B1FFE7D7
:10AEA000019801300190019803990969884207D1FE
:10AEB000FFE70099002081F82C000420059004E0B1
:10AEC000FFE7DBE700200590FFE7059806B080BDAF
:10AED00080B586B004900391002001900498009002
:10AEE0000498039901F09AF80290029818B1FFE7CC
:10AEF0000298059027E0FFE7009890F85400C007FB
:10AF0000F0B1FFE7049801F0C3F84FF47A70FDF751
:10AF10006DFE03980069013088B1FFE701980130A8
:10AF20000190019803990969884207D1FFE70099C8
:10AF3000002081F854000420059004E0FFE7DBE7DF
:10AF400000200590FFE7059806B080BD6021C4F29F
:10AF50000201086840F400300860086840F480206E
:10AF60000860086840F400200860086840F48030F9
:10AF70000860086820F010000860086840F00E00C3
:10AF80000860086840F001000860086820F400705C
:10AF90000860086840F4E0700860086840F020002D
:10AFA000086070478EB00C900B910A920C980103C8
:10AFB0004CF23000C4F201004058C0F302100138D6
:10AFC00001460191042823D80199DFE801F0090F17
:10AFD000151B030046F60040C0F2DC2002901FE083
:10AFE00043F20060C0F26E10029019E041F60030AA
:10AFF000C0F2B700029013E048F68050C0F25B0048
:10B0000002900DE04CF2C060C0F22D00029007E00B
:10B010000A99002008600220C0F600000D9042E06E
:10B020000B980001039002980399B0FBF1F0059092
:10B03000029880010399B0FBF1F00021079106907E
:10B0400006990798059AB1EB821160F1000008910A
:10B05000099008980490059840B9FFE70A990020E4
:10B0600008600320C0F600000D901CE005980C99C4
:10B070000A034CF22401C4F20101885004980C998F
:10B080000A034CF22801C4F2010188500298059984
:10B090000901049A01EB9201B0FBF1F00A990860F2
:10B0A00000200D90FFE70D980EB0704783B002901E
:10B0B00001910092FFE70098411E009148B1FFE71F
:10B0C0000198009950F821000299009A41F8220055
:10B0D000F1E703B07047000080B588B08DF81F001D
:10B0E00006919DF81F00C00740B1FFE740F21C70B9
:10B0F000C1F200000078C00768B9FFE79DF81F00A3
:10B10000C00748B9FFE740F21C70C1F200000078A8
:10B11000C00708B9FFE7A7E0FDF72CFE03909DF8F4
:10B120001F0000F0010040F21C71C1F20001087024
:10B130009DF81F00C00748B1FFE740F22470C1F23C
:10B140000000006806990844029008E040F224706C
:10B15000C1F2000000680699401A0290FFE70299C8
:10B1600040F22470C1F2000001600068059005986B
:10B17000B0F1FF3F03DCFFE70020059007E00598F2
:10B18000402803D3FFE73F200590FFE7FFE79DF846
:10B190001F00C00748B1FFE740F22070C1F2000075
:10B1A000006806990844019008E040F22070C1F25E
:10B1B000000000680699401A0190FFE7019940F2EB
:10B1C0002070C1F200000160006804900498B0F1A2
:10B1D000FF3F03DCFFE70020049007E004984028CD
:10B1E00003D3FFE73F200490FFE7FFE79DF81F0030
:10B1F000C007C8B1FFE7059A40F26C31C4F2020102
:10B20000086802F03F0220F07C7040EA02500860BB
:10B210001420FDF7EBFC049A8821C4F202010868AF
:10B2200062F30500086018E0049A8821C4F2020164
:10B23000086862F3050008601420FDF7D7FC059A42
:10B2400040F26C31C4F20201086802F03F0220F0C3
:10B250007C7040EA02500860FFE70398FDF792FD1A
:10B260001420FDF7C3FCFFE708B080BD80B582B0B5
:10B27000642040F67C21C4F20C0101231A46FDF73C
:10B28000E1FC0090009818B1FFE7009801901AE0E7
:10B29000642041F61071C4F20C0101231A46FDF737
:10B2A000D1FC0090009818B1FFE7009801900AE0E7
:10B2B00040F68021C4F20C01086840F001000860EB
:10B2C00000200190FFE7019802B080BD80B582B0F8
:10B2D000FDF750FD0190012000F010F8FFE7542029
:10B2E000C4F6000000688008C00708B9FFE7F6E769
:10B2F0000198FDF747FD02B080BD000081B08DF8D8
:10B3000003005020C4F6000000688008C00708B1A0
:10B31000FFE71EE0BFF34F8F9DF80300C00760B149
:10B32000FFE75421C4F60001086840F001000860FE
:10B330000020C4F2FF700068FFE75421C4F600014A
:10B34000086840F0020008600020C4F2FF70006846
:10B35000FFE701B07047000087B00690059100201C
:10B360008DF8130003900290069800782D280AD1DA
:10B37000FFE701208DF8130006980130069002982F
:10B3800001300290FFE7FFE706980178002030299E
:10B39000019008DBFFE70698017800203A29B8BF42
:10B3A00001200190FFE70198C00790B1FFE70298E4
:10B3B00001300290039800EB800040000390069853
:10B3C00000780399084430380390069801300690BD
:10B3D000DAE7059820B1FFE7029805990860FFE7D2
:10B3E0009DF81300C00720B1FFE70398404200908A
:10B3F00002E003980090FFE7009807B07047000054
:10B400008CB009910890099800285BD0FFE7089B51
:10B41000099A5FEA52004FEA33019B0843EA8273BC
:10B42000C91840EB920006910790069907980A09FF
:10B4300042EA0072891840EB1010069107900699B5
:10B4400007980A0A42EA0062891840EB1020069128
:10B450000790069907980A0C42EA0042891840EBC7
:10B4600010400691079006990798091840F10000CE
:10B470000691079006980799C00840EA4170C908EC
:10B480000791069008990998069ADDF81CC00A23CE
:10B49000A2FB03320CEB8C0C02EB4C02C91A90415C
:10B4A0000491059006990798049B059A063342F18A
:10B4B00000021B0943EA0273C91840EB12100A91FB
:10B4C0000B9025E0089801900199480800EB910045
:10B4D0000390039800EB10100390039800EB1020EA
:10B4E0000390039800EB104003900398C00803906A
:10B4F0000198039901EB8101A0EB410002900398B0
:10B500000299063100EB111000210B910A90FFE720
:10B510000A980B990CB0704780B584B002900298DD
:10B520000078C00748B1FFE741F25801C4F20201B8
:10B53000086840F00200086008E041F25801C4F2D7
:10B540000201086820F002000860FFE70298807896
:10B55000C00748B1FFE741F25801C4F20201086890
:10B5600040F00100086008E041F25801C4F2020115
:10B57000086820F001000860FFE741F25800C4F2BB
:10B5800002000368694601200860052041F25C0161
:10B59000C4F202010322FDF779FB0190019818B172
:10B5A000FFE7019803906CE041F25C00C4F20200F6
:10B5B0000068C0F3400041F25801C4F2020109687A
:10B5C000C1F34001884211D1FFE741F25C00C4F2AF
:10B5D0000200006800F0010041F25801C4F20201CB
:10B5E000096801F00101884203D0FFE701200390C0
:10B5F00047E002984078C00748B1FFE741F2600198
:10B60000C4F20201086820F00400086008E041F27A
:10B610006001C4F20201086840F004000860FFE71E
:10B620000298C078C00748B1FFE741F26001C4F258
:10B630000201086840F00200086008E041F2600181
:10B64000C4F20201086820F002000860FFE70298D7
:10B650000079C00748B1FFE741F26001C4F202017E
:10B66000086820F00100086008E041F26001C4F2BF
:10B670000201086840F001000860FFE70020039025
:10B68000FFE7039804B080BD80B584B002900298B3
:10B690000078C00748B1FFE741F27801C4F2020127
:10B6A000086840F00200086008E041F27801C4F246
:10B6B0000201086820F002000860FFE70298807825
:10B6C000C00748B1FFE741F27801C4F202010868FF
:10B6D00040F00100086008E041F27801C4F2020184
:10B6E000086820F001000860FFE741F27800C4F22A
:10B6F00002000368694601200860052041F27C01D0
:10B70000C4F202010322FDF7C1FA0190019818B1B9
:10B71000FFE7019803906CE041F27C00C4F2020064
:10B720000068C0F3400041F27801C4F202010968E8
:10B73000C1F34001884211D1FFE741F27C00C4F21D
:10B740000200006800F0010041F27801C4F2020139
:10B75000096801F00101884203D0FFE7012003904E
:10B7600047E002984078C00748B1FFE741F2800106
:10B77000C4F20201086820F00400086008E041F209
:10B780008001C4F20201086840F004000860FFE78D
:10B790000298C078C00748B1FFE741F28001C4F2C7
:10B7A0000201086840F00200086008E041F28001F0
:10B7B000C4F20201086820F002000860FFE7029866
:10B7C0000079C00748B1FFE741F28001C4F20201ED
:10B7D000086820F00100086008E041F28001C4F22E
:10B7E0000201086840F001000860FFE700200390B4
:10B7F000FFE7039804B080BD80B590B08DED0E0AD0
:10B800000D900C910D98006809900998032804DCAC
:10B81000FFE76FF002000F9003E19DED0E0AB5EE19
:10B82000400AF1EE10FA09D1FFE70D9942F63060B7
:10B83000C0F23000086003200F90F2E00D980590F0
:10B840000E980B900B98C10D6FF07E0050FA81F0AE
:10B850000A900B9840F4000020F07F4008900020F0
:10B86000069007900A981F2804DBFFE76FF001009D
:10B870000F90D6E00A9810F1180F04DCFFE74FF0A4
:10B88000FF300F90CDE00A98172806DBFFE70898F5
:10B890000A991739884007901AE00A9800280ED4B0
:10B8A000FFE708980A99C1F1170108410790089825
:10B8B0000A990131884020F07F40069007E00898FF
:10B8C00020F07F400A99C943C8400690FFE7FFE790
:10B8D000FFE7FFE70B98B0F1FF3F06DCFFE70D99AC
:10B8E000481C0D902D200870FFE7079830B9FFE73E
:10B8F0000D99481C0D90302008701FE00798012812
:10B9000006DBFFE70798C1170D9A02F0A7FC0BE0D2
:10B910000D99481C0D902D20087007984042C117C2
:10B920000D9A02F09BFCFFE7FFE70D98007820B12D
:10B93000FFE70D9801300D90F7E7FFE70D99481CE0
:10B940000D902E200870069830B9FFE70D99481C1D
:10B950000D90302008705CE009990D98059A801AC6
:10B96000C0430844029002980C99884203DDFFE727
:10B970000C98019002E002980190FFE70198029074
:10B9800000200390FFE703980299884215DAFFE749
:10B99000069800EB8000400006909DF81B003030B8
:10B9A0000D994A1C0D920870069820F07F40069071
:10B9B000FFE7039801300390E5E7069800EB80006D
:10B9C00040F3C750052823DBFFE70D9801380490AA
:10B9D000FFE704980599884219D3FFE70498007897
:10B9E0002E2801D1FFE70EE004980078392804D111
:10B9F000FFE704993020087004E0049908780130CA
:10BA0000087004E0FFE7049801380490E1E7FFE7DD
:10BA1000FFE70D99002008700D980599401A0F90C6
:10BA2000FFE70F9810B080BD88B007908DF81B100D
:10BA30001520059000200390029040F2E030C1F202
:10BA4000000000680190079840080790FFE70598FC
:10BA50000138059030B3FFE79DF81C00C007D0B156
:10BA6000FFE79DF81B10019AA2F1200001FA00FCEB
:10BA7000C2F1200321FA03F3002858BF634601FAFC
:10BA800002F2002858BF002202990398184311437C
:10BA900002910390FFE70198033001900798400856
:10BAA0000790D4E70298039908B0704786B00591D3
:10BAB00004908DF80F20152002900020019040F294
:10BAC000E030C1F20000036804980599D840C3F142
:10BAD000200201FA02F21043A3F1200221FA02FC33
:10BAE000002A58BF6046D940002A58BF002105915E
:10BAF0000490FFE7029801380290D8B1FFE704985C
:10BB000000F007009DF80F1048400AD1FFE70298A7
:10BB1000C0F11401012000FA01F1019808430190DD
:10BB2000FFE704980599C00840EA4170C9080591EB
:10BB30000490DFE7019806B07047000080B5ADF5CE
:10BB4000876D0020CDF834044EF29E40C0F2010013
:10BB5000FCF7D2FEFCF7F8FEFCF71CFE00F018F92B
:10BB600002F07AFAFDF70AF9FCF79EFDFFE740F2D2
:10BB70003400C1F200000490012101F0E3F80A2032
:10BB8000FEF7F2FD0498006838B9FFE74EF604505E
:10BB9000C0F20100FEF7FCFD1FE04EF6E740C0F2E8
:10BBA0000100FEF7F5FD40F23400C1F2000001F0A3
:10BBB000F1F8CDF82C04DDF82C0438B1FFE74EF68F
:10BBC000CB40C0F20100FEF7E3FD06E04EF6245044
:10BBD000C0F20100FEF7DCFDFFE7DDF82C040028D1
:10BBE00040F0D280FFE74FF480500A904FF400718C
:10BBF000039109918BA8FCF799FB03990BA8FCF71B
:10BC000095FB00200790FFE70798B0F5007F08DA62
:10BC1000FFE707988BA90854FFE7079801300790C2
:10BC2000F2E709990A9A4EF6A950C0F20100FEF710
:10BC3000AFFD0A99099A40F23400C1F20000029067
:10BC40008BAB01F005FACDF82C0409990A9A4EF64F
:10BC50008C50C0F20100FEF79BFD02980A99099AE8
:10BC60000BAB01F09DF9CDF82C0400208DF82300DA
:10BC70000690FFE706980999884213D2FFE7069AD3
:10BC80008BA8805C0BA9895C884204D0FFE7012067
:10BC90008DF82300FFE709980690FFE7069801302A
:10BCA0000690E7E79DF82300C00738B9FFE74EF696
:10BCB0003A50C0F20100FEF76BFD06E04EF6585018
:10BCC000C0F20100FEF764FDFFE70A9800F500707E
:10BCD0000A9009990A9A4EF6A950C0F20100FEF79F
:10BCE00057FD0A99099A40F23400C1F20000019010
:10BCF0008BAB01F0ADF9CDF82C0409990A9A4EF6F8
:10BD00008C50C0F20100FEF743FD01980A99099A90
:10BD10000BAB01F045F9CDF82C0400208DF8230081
:10BD20000590FFE705980999884213D2FFE7059A25
:10BD30008BA8805C0BA9895C884204D0FFE70120B6
:10BD40008DF82300FFE709980590FFE7059801307B
:10BD50000590E7E79DF82300C00738B9FFE74EF6E6
:10BD60003A50C0F20100FEF713FD06E04EF65850BF
:10BD7000C0F20100FEF70CFDFFE74EF67150C0F275
:10BD80000100FEF705FDFFE702F034F9FFE7FEE7EB
:10BD900080B588B04EF29240C0F201008188ADF8C3
:10BDA0001C10006806904EF29840C0F20100818895
:10BDB000ADF8141000680490002000908DF80C007D
:10BDC000029006A8FDF718FB04A8FDF739FD0098BE
:10BDD00002A90191FDF7B2F901990120FDF7AEF931
:10BDE00008B080BD84B00391029002980399084383
:10BDF000B0FA80F040090190FFE7029803990843E8
:10BE000060B1FFE702980399000940EA017009094F
:10BE100003910290019801300190EEE7019804B07F
:10BE20007047000080B582B0019100900198B0F198
:10BE3000FF3F09DCFFE70098019A41424FF0000004
:10BE4000904100910190FFE70098019900F002F8FD
:10BE500002B080BD80B584B003910290029803992E
:10BE60000843B0FA80F040090190FFE70298039977
:10BE7000084350B1FFE702980399FFF7C1FA039115
:10BE80000290019801300190F0E7019804B080BD64
:10BE900080B586B004900391002002900398C0689A
:10BEA0000190049888B1FFE704980068000EC0076D
:10BEB00058B1FFE70498006820F07F4049F606611A
:10BEC000C0F2EA01884203D0FFE70220059018E0A3
:10BED000019820B1FFE7019900200860FFE704986E
:10BEE000039900F00BFA0290029818B1FFE702984C
:10BEF000059006E0049800F007F8FFE70298059027
:10BF0000FFE7059806B080BD80B58AB00990099812
:10BF10000890089890F89800C00720B1FFE70998AA
:10BF200000F030FAFFE7089890F82C00C0070028CE
:10BF300071D0FFE7FCF71EFF07900898006D069090
:10BF40000898806B0699401A05900898406B0699EE
:10BF50000844049000200390089890F89800C007C7
:10BF600070B3FFE70898D0F8A400029005980299F2
:10BF7000884203D2FFE70598009002E00298009003
:10BF8000FFE70098039008989C300499039AFDF706
:10BF900059FD8DF807009DF80700C00778B9FFE745
:10BFA0000899002081F82C000898406C30B1FFE718
:10BFB0000898426C816C012090472CE0FFE706E076
:10BFC00009980499059A03ABFEF776F9FFE7039AFF
:10BFD0000899086D104408650798FCF7D3FE089887
:10BFE000006D0899C96B08600898006D0899896B05
:10BFF00088420FD1FFE70899002081F82C000898AB
:10C00000406C30B1FFE70898426C816C002090478B
:10C01000FFE7FFE7FFE70AB080BD000080B586B00C
:10C02000049003910398C0680190049888B1FFE7D9
:10C0300004980068000EC00758B1FFE70498006834
:10C0400020F07F4049F60661C0F2EA01884203D041
:10C05000FFE70220059018E0019820B1FFE7019961
:10C0600000200860FFE70498039902F03BF9029072
:10C07000029818B1FFE70298059006E0049800F0D6
:10C0800007F8FFE700200590FFE7059806B080BDA0
:10C0900080B58AB0099009980890089890F85400E3
:10C0A000C007002857D0FFE7FCF764FE0790089808
:10C0B000806F06900898006E0699401A05900898BF
:10C0C000C06D069908440490089890F87C00C00759
:10C0D00088B3FFE70899D1F88C00D1F88810401A8E
:10C0E000029005980299884203D2FFE705980090D4
:10C0F00002E002980090FFE70098039008988030D3
:10C100000499039AFDF74CFC8DF807009DF8070091
:10C11000C00778B9FFE70899002081F85400089813
:10C12000C06E30B1FFE70898C26E016F01209047E2
:10C130003CE0FFE706E009980499059A03ABFEF797
:10C14000FFF8FFE7039A0899886F104488670798FB
:10C15000FCF718FEFFE7089890F87C00C00720B1B4
:10C16000FFE7099801F0E2FFFFE70898806F089960
:10C17000496E08600898806F0899096E884215D149
:10C18000FFE7089890F85400C00778B1FFE70899D6
:10C19000002081F854000898C06E30B1FFE708987D
:10C1A000C26E016F00209047FFE7FFE70AB080BD35
:10C1B00085B003908DF80B1001920020009001983B
:10C1C000002803DCFFE70098049016E0FFE70198E1
:10C1D000411E019170B1FFE7039838B1FFE79DF868
:10C1E0000B0003994A1C03920870FFE70098013086
:10C1F0000090ECE700980490FFE7049805B07047C2
:10C2000080B588B08DF81B009DF81B1001A8FCF7C5
:10C2100049FB0590059818B1FFE7059807906AE07B
:10C22000049800901E2823D0FFE70098FF284FD0E5
:10C23000FFE70098B0F5F07F2AD0FFE70098B0F54F
:10C24000F05F05D0FFE70098B0F5E03F30D04EE05A
:10C250000198006810F4F05F09D0FFE701980068CA
:10C260000299084203D1FFE700200590FFE73FE075
:10C270000198006810F01E0F09D0FFE701980068D0
:10C280000299084203D1FFE700200590FFE72FE065
:10C290000198006810F4F07F09D0FFE7019800686A
:10C2A0000299084203D1FFE700200590FFE71FE055
:10C2B0000198006810F4E03F09D0FFE7019800689A
:10C2C0000299084203D1FFE700200590FFE70FE045
:10C2D00001980068000648B1FFE7019800680299DC
:10C2E000084203D1FFE700200590FFE700E0FFE7E9
:10C2F00005980790FFE7079808B080BD80B584B027
:10C300000390029100200190FCF734FD0090039807
:10C3100090F82C00C00748BBFFE70399012081F883
:10C320002C0002980078039981F830000298406848
:10C330000399486302988068039988630298C068EB
:10C340000399C863029800690399086402984069D8
:10C350000399486402988069039988640298C069C7
:10C360000399C86403990020086504E00520C0F61D
:10C3700000000190FFE70098FCF704FD019804B06D
:10C3800080BD000080B58EB00D900D980C90FCF72C
:10C39000F1FC01900D9804A9202203ABFDF78CFF5E
:10C3A0000290029870B9FFE70C989C30039A04A998
:10C3B000FDF7F6FA28B9FFE70120C0F60000029069
:10C3C000FFE7FFE70198FCF7DDFC02980EB080BDA7
:10C3D00080B590B00E90002004900390FF208DF85F
:10C3E0000B00FFE705A801902421FBF7C1FF01998D
:10C3F00037208DF8140000220692152007900E9821
:10C4000000F072FC9DF8340020B1FFE79DF8340085
:10C410000F9089E0099841F27531C1F2000108607E
:10C420009DF8120000F0F7008DF812009DF8120040
:10C4300040F010008DF812009DF8120000F0DF00AF
:10C440008DF812009DF8130040F040008DF81300A5
:10C4500040F25830C1F200000078C00738B1FFE761
:10C460009DF8130000F0BF008DF81300FFE705A84A
:10C4700000902421FBF77CFF009929208DF81400FF
:10C4800004980690012007900E98002200F02CFCE2
:10C490009DF8340020B1FFE79DF834000F9043E091
:10C4A000099803909DF80F100120B0EBD11F01D126
:10C4B000FFE70EE00A20FEF757F99DF80B00013860
:10C4C0008DF80B00FFE79DF80B0000283FF78AAFBF
:10C4D000FFE79DF80B0018B9FFE706200F9023E057
:10C4E0009DF80F00C0F380100E9981F89002099812
:10C4F0000E99C1F867009DF80E00C008C00760B92A
:10C50000FFE79DF80E000009C00730B9FFE79DF86E
:10C510000E004009C00720B1FFE79DF834000F90DE
:10C5200002E006200F90FFE70F9810B080BD0000DA
:10C5300080B598B016900DA802902421FBF718FF43
:10C54000029937208DF834001698B0F86B0000047B
:10C550000E9015200F901698002200F0C5FB9DF854
:10C56000540020B1FFE79DF85400179042E0119865
:10C5700041F27531C1F2000108600DA8009024213C
:10C58000FBF7F6FE0099002001900C900B900A90AA
:10C590000990089006900590049003908DF8220071
:10C5A0008DF820008DF8210003A8099001200B9040
:10C5B00010200A9033208DF834001698B0F86B00E4
:10C5C00000040E9015200F90169808AA00F08CFB1E
:10C5D0009DF8540050B9FFE7119841F27531C1F24E
:10C5E0000001086003A800F0E9FCFFE79DF8540093
:10C5F0001790FFE7179818B080BD000080B592B083
:10C6000010908DF83F109DF83F00014603910128DE
:10C6100004D0FFE7039804280FD01EE000208DF817
:10C62000130041F26C30C1F200000079C00718B964
:10C63000FFE70620119056E012E002208DF813006B
:10C6400041F26C30C1F2000000794007002803D4A9
:10C65000FFE70620119046E002E00620119042E03C
:10C6600006A802902421FBF783FE029937208DF85B
:10C6700018001098B0F86B0000040790152008907F
:10C680001098002200F030FB9DF8380020B1FFE741
:10C690009DF83800119026E00A9841F27531C1F2F8
:10C6A0000001086006A801902421FBF761FE0199B2
:10C6B00006208DF818009DF81300079015200890AB
:10C6C0001098002200F010FB9DF8380038B9FFE701
:10C6D0000A9841F27531C1F200010860FFE79DF848
:10C6E00038001190FFE7119812B080BD80B58CB072
:10C6F0000B9002A801902421FBF73AFE0199002239
:10C700008DF80820039204920B9800F0EDFA9DF842
:10C7100028000CB080BD000080B58CB00B900A9151
:10C7200001A800902421FBF723FE009910208DF82A
:10C7300004000A980290152003900B98002200F044
:10C74000D3FA9DF8240038B9FFE7059841F2753116
:10C75000C1F200010860FFE79DF824000CB080BD25
:10C7600080B594B0139012911192109307A8009085
:10C770002421FBF7FDFD009900220192069205920B
:10C7800004920392029211208DF81C0011980890D7
:10C790001520099001208DF828008DF80A208DF8C9
:10C7A00008208DF80920109A0392059012980490A1
:10C7B000139802AA00F098FA9DF83C0038B9FFE7F8
:10C7C0000B9841F27531C1F200010860FFE79DF856
:10C7D0003C0014B080BD000080B594B0139012915D
:10C7E0001192109307A801902421FBF7C1FD019934
:10C7F00000220692059204920392029218208DF86C
:10C800001C0011980890152009908DF80A2001202D
:10C810008DF808008DF80920109A0392059012985F
:10C820000490139802AA00F05FFA9DF83C0038B912
:10C83000FFE70B9841F27531C1F200010860FFE794
:10C840009DF83C0014B080BD80B58EB00D90AA203C
:10C85000029004A801902421FBF78AFD019902208F
:10C860008DF8100000220592072006900D9800F028
:10C870003BFA9DF83000D8B9FFE70D9991F86600B2
:10C8800040F0010081F8660008980D99C1F86D002C
:10C8900009980D99C1F871000A980D99C1F87500B1
:10C8A0000B980D99C1F879000D986D300390FFE752
:10C8B0009DF830000EB080BD80B58EB00D9004A8FC
:10C8C00001902421FBF754FD019903208DF81000FD
:10C8D00000220592152006900D9800F005FA9DF8AB
:10C8E000300048B9FFE704A8103002900298408851
:10C8F0000D99A1F86B00FFE79DF830000EB080BDE8
:10C9000080B5A6B0259124901BA804902421FBF7A4
:10C910002FFD002001901A901990189017901690F2
:10C9200005A8029040210391FBF700FD019B029AAC
:10C93000039804998DF85A308DF858308DF8593095
:10C94000179201221992189006208DF86C002598F4
:10C950001C9015201D90249816AA00F0C5F99DF88A
:10C960008C0038B9FFE71F9841F27531C1F2000120
:10C970000860FFE79DF88C0026B080BD80B58CB0C4
:10C980000B9002A800902421FBF7F2FC00990720ED
:10C990008DF808000B98B0F86B00000403901D2080
:10C9A00004900B98002200F09FF99DF8280038B9F8
:10C9B000FFE7069841F27531C1F200010860FFE718
:10C9C0009DF828000CB080BD80B58CB00B90AA20DB
:10C9D000019002A800902421FBF7CAFC00990820CE
:10C9E0008DF80800019800F58070039015200490E0
:10C9F0000B98002200F078F99DF8280038B9FFE77D
:10CA0000069841F27531C1F200010860FFE79DF818
:10CA100028000CB080BD000080B58CB00B9002A83F
:10CA200000902421FBF7A4FC009909208DF8080050
:10CA30000B98B0F86B0000040390072004900B984B
:10CA4000002200F051F99DF82800C0B9FFE70B99CA
:10CA500091F8660040F0020081F8660006980B9994
:10CA6000C1F87D0007980B99C1F8810008980B99CF
:10CA7000C1F8850009980B99C1F88900FFE79DF876
:10CA800028000CB080BD000089B008900898D0F84C
:10CA90007D0004900898D0F8810005900898D0F89F
:10CAA000850006900898D0F8890007900498810FB7
:10CAB00041F24C30C1F200000290017001788DF813
:10CAC0000F10BDF8121041700499090A8170049981
:10CAD000C1700599090D81800599C1F303418171E8
:10CAE000BDF81410C90BC1710599C1F380310172F1
:10CAF0000599C1F3403141720599C1F3003181724A
:10CB0000007838BBFFE705986FF39F20800041F263
:10CB10004C31C1F200010191C1F80B00069AD1F825
:10CB20000B0000EB9270C1F80B000698C0F3C260D6
:10CB3000C8730698C0F3026008740698C0F34250A8
:10CB400048740698C0F3824088740698C0F3C230D7
:10CB5000C87414E041F24C31C1F200010091002090
:10CB6000C1F80B00BDF81A30D1F80B201A44C1F8F7
:10CB70000B20C873087448748874C874FFE706985B
:10CB8000C0F3803041F24C31C1F2000108750698C3
:10CB900000F43E50C0094875069800F07F00887583
:10CBA0000798C00FC8750798C0F382600876079889
:10CBB000C0F3835048760798C0F3405088760798B2
:10CBC000C0F3C030C8760798C0F380300877079864
:10CBD000C0F3403048770798C0F300308877079853
:10CBE000C0F38120C87709B07047000080B582B0DB
:10CBF000019001988068009001980078042814D171
:10CC0000FFE7009890F84C0078B9FFE740F2DC317C
:10CC1000C1F2000101200870019841684EF63D30D4
:10CC2000C0F20100FDF7B4FDFFE701980078042889
:10CC300015D1FFE7009890F84C0001280FD1FFE7CD
:10CC400040F2DD31C1F20001012008700198416815
:10CC50004EF67430C0F20100FDF79AFDFFE701982F
:10CC6000007803280ED1FFE7009890F84C0048B9EF
:10CC7000FFE7019841684EF62230C0F20100FDF74F
:10CC800087FDFFE70198007803280FD1FFE70098A0
:10CC900090F84C00012809D1FFE7019841684EF651
:10CCA0005830C0F20100FDF773FDFFE701980078EE
:10CCB00006280AD1FFE7009890F85C104EF60E3077
:10CCC000C0F20100FDF764FDFFE70198007801283C
:10CCD00007D1FFE74EF69030C0F20100FDF758FD96
:10CCE000FFE702B080BD000080B586B004900391DC
:10CCF000029203208DF80300FFE79DF80300411E18
:10CD00008DF8031078B1FFE7049800680399029A40
:10CD100000F0CEFA0190BDF8040018B9FFE70198C1
:10CD200005900BE0E9E7039801784EF69240C0F2D7
:10CD30000100FDF72DFD01980590FFE7059806B06D
:10CD400080BD000080B582B001908DF8031001987D
:10CD5000407AC00730B1FFE79DF80300C00708B96B
:10CD6000FFE715E00198407AC00720B1FFE701987E
:10CD700000F054FCFFE7019800F076FC20B1FFE7DB
:10CD800001990020086003E0019901204872FFE743
:10CD900002B080BD80B584B002900298FFF7A6FC77
:10CDA00048B1FFE74EF67240C0F20100FDF7F0FC1B
:10CDB00001200390F0E03220FDF7D6FC40F258311C
:10CDC000C1F20001002008700298FFF7FDFD38B1A4
:10CDD000FFE740F25831C1F2000101200870FFE77F
:10CDE0000298FFF7F5FA48B1FFE74EF68140C0F22E
:10CDF0000100FDF7CDFC01200390CDE00298FFF784
:10CE000023FD48B1FFE74EF6BD30C0F20100FDF74B
:10CE1000BFFC01200390BFE00298FFF74DFD48B131
:10CE2000FFE74EF6A430C0F20100FDF7B1FC01208F
:10CE30000390B1E00298FFF7EFFD48B1FFE74EF62F
:10CE4000D630C0F20100FDF7A3FC01200390A3E05F
:10CE50000298FFF719FE0298FFF790FD48B1FFE72F
:10CE60004EF62340C0F20100FDF792FC0120039032
:10CE700092E00298FFF75CFB48B1FFE74EF60A40EC
:10CE8000C0F20100FDF784FC0120039084E00298C9
:10CE90000421FFF7B3FB48B1FFE74EF63A40C0F27A
:10CEA0000100FDF775FC0120039075E00298006811
:10CEB0000421FCF7CBFF41F26C30C1F20000407856
:10CEC000012856DBFFE79DF8030000F080008DF895
:10CED00003009DF8030000F07F008DF803009DF82B
:10CEE000020040F0F0008DF802009DF8020040F0D2
:10CEF0000F008DF802009DF8010040F0F0008DF861
:10CF000001009DF8010040F00F008DF801009DF830
:10CF1000000040F0F0008DF800009DF8000000F0E7
:10CF2000F00001308DF8000002980099FFF7E8FC4E
:10CF300048B1FFE74EF6EF30C0F20100FDF728FCE4
:10CF40000120039028E09DF8030040F080008DF858
:10CF5000030002980099FFF7D3FC48B1FFE74EF6B3
:10CF6000EF30C0F20100FDF713FC0120039013E045
:10CF7000FFE702984FF40071FFF7CEFB48B1FFE7DF
:10CF80004EF65340C0F20100FDF702FC0120039071
:10CF900002E000200390FFE7039804B080BD00008A
:10CFA00080B584B003900291019200930398019997
:10CFB000029A009BFFF7D4FB04B080BD82B00190C1
:10CFC000019800780006009001984178009800EBE5
:10CFD0000140009001988178009800EB01200090BA
:10CFE0000198C1780098084400900098000F41F221
:10CFF0006C31C1F2000108709DF8030000F00F00D1
:10D0000048700098C0F3C05088700098C0F3025078
:10D01000C870BDF8020000F00F0008710198007997
:10D020000006009001984279009800EB02400090C1
:10D0300001988279009800EB022000900198C27953
:10D040000098104400900098C1F8050002B07047A5
:10D0500080B584B0039002910192009303980199E6
:10D06000029A009BFFF7B8FB04B080BD82B000902D
:10D070009DF802000007002804D5FFE703208DF883
:10D08000070020E09DF802004007002804D5FFE7D4
:10D0900005208DF8070016E09DF8020080070028A3
:10D0A00004D5FFE704208DF807000CE09DF802008E
:10D0B000C00720B1FFE706208DF8070003E002203B
:10D0C0008DF80700FFE79DF8070002B070470000E9
:10D0D00080B586B0049003910292032001900298DB
:10D0E00028B1FFE702988078C00728B1FFE70198D0
:10D0F00020F002000190FFE7049800F12401019B59
:10D100006A460020106064201A46FBF7BFFD042821
:10D1100013D1FFE74EF68B20C0F201004EF6F72246
:10D12000C0F2010240F2A111FDF732FB0399022087
:10D1300081F820000420059002E000200590FFE720
:10D14000059806B080BD000082B000909DF80300F5
:10D150008007002804D5FFE701208DF8070021E0B3
:10D160009DF802008006002804D5FFE702208DF814
:10D17000070017E09DF80200C006002804D5FFE76D
:10D1800003208DF807000DE09DF8020040060028FE
:10D1900004D5FFE704208DF8070003E005208DF893
:10D1A0000700FFE79DF8070002B0704780B588B020
:10D1B000069006980590069888B1FFE706980068E3
:10D1C000000EC00758B1FFE70698006820F07F40C6
:10D1D00041F2B031C0F28301884203D0FFE7022060
:10D1E000079062E005980068400EC00718B1FFE79D
:10D1F0000720079059E0059840680021C4F2070114
:10D200000844049040F25041C4F20201086840F022
:10D21000030008600A20FDF7A7FA0498022100F035
:10D220005FFD039058B1FFE74EF65510C0F20100C4
:10D230004FF4AF71FDF7ACFA0398079035E040F278
:10D240009421C4F2010108684B2262F306000860D1
:10D2500008684A2262F30E2008600598416834226B
:10D26000C4F207024FF0FF30885005984168382219
:10D27000C4F207020020029088501A200190042175
:10D28000FBF784F90198FBF747F9029805990875AF
:10D2900005994875059988610599C861059A1168CD
:10D2A00041F0007111600790FFE7079808B080BD5A
:10D2B00080B58AB0089007910692089805900020E2
:10D2C000049003900290059840680021C4F2070181
:10D2D00008440490059890F83900C00758B9FFE752
:10D2E0004EF6A610C0F2010040F2E941FDF750FAF7
:10D2F00003200990FCE00598007DC00780B1FFE79E
:10D300000498012100F0ECFC0599002008754EF608
:10D310002720C0F2010040F2F641FDF739FAFFE79D
:10D320000598407DC00788B1FFE70498002100916F
:10D3300000F0D6FC0098059948754EF6F510C0F23D
:10D34000010040F2FF41FDF723FAFFE704994FF097
:10D35000FF3008639DF8080040F001008DF80800D8
:10D360009DF80B0040F002008DF80B009DF80B00BB
:10D3700040F001008DF80B009DF8080040F02000FF
:10D380008DF808009DF8080040F010008DF80800A6
:10D390009DF80A0040F002008DF80A009DF80A008E
:10D3A00040F004008DF80A009DF80A0040F00800E3
:10D3B0008DF80A009DF80A0040F001008DF80A007F
:10D3C0009DF80A0040F080008DF80A009DF80A00E0
:10D3D00040F020008DF80A009DF80A0040F040005F
:10D3E0008DF80A009DF80A0040F010008DF80A0040
:10D3F0009DF80B0040F004008DF80B009DF808002C
:10D4000040F002008DF808009DF8080040F0080088
:10D410008DF80800029A0499886B1043886341F2E2
:10D420007C31C1F20001002008604EF28D70C0F224
:10D43000010040F22551FDF7ABF90499C86A40F0AC
:10D440000400C86205980499079A069B00F038FB0F
:10D45000039018B1FFE70398099049E005980499F3
:10D46000079A00F073FC039018B1FFE70398099046
:10D470003EE00498079900F03FF80798407BC0070A
:10D4800078B1FFE7FBF776FC019004994FF0FF308D
:10D4900088630599002081F839000198FBF772FC38
:10D4A000FFE7069828B1FFE70798407BC007C8B19F
:10D4B000FFE7069898B9FFE70798007BC00770B9A7
:10D4C000FFE70499C86A20F00400C8624EF2B27007
:10D4D000C0F2010040F24651FDF75AF9FFE7002083
:10D4E000099005E00598069900F06EFC0990FFE7A9
:10D4F00009980AB080BD000086B005900491049997
:10D50000002081F820000498806808B9FFE727E030
:10D510000498007A800700281DD5FFE70598006968
:10D5200000900598406901900598806902900598DF
:10D53000C0690390DDF80B0004990861DDF807006D
:10D5400004994861DDF8030004998861009800029D
:10D550000499C86104E00598006904990861FFE72F
:10D5600006B0704780B586B00590059800680390B6
:10D5700000210291059841600598039A1061059871
:10D5800040680022C4F20702104404900498006C22
:10D59000000A039A107305980173059A01200190FF
:10D5A000D072059B03229A72059A5173049AD2F89D
:10D5B000FC20120C059B1A76039A127B44F240233E
:10D5C000C0F20F035A43059BDA61059BDA69120A20
:10D5D0001A62059A5161059A4FF4FE61116104992E
:10D5E0004968C1F3023100FA01F10903039A91601D
:10D5F000039981F839000598C17A00F051FB05982C
:10D60000017B00F00DFB019A05984BF6D801C0F2A2
:10D61000050100F093FA06B080BD000080B582B02D
:10D62000009000980068FCF78FFA18B1FFE701201E
:10D63000019016E00098006801210022FCF752FBDF
:10D6400018B1FFE7012001900BE000980068FCF79B
:10D6500053FA18B1FFE70120019002E00020019089
:10D66000FFE7019802B080BD80B582B000900099BC
:10D670004868FCF7BDFA18B1FFE70120019019E0F6
:10D680000098006800221146FCF72CFB18B1FFE758
:10D69000012001900EE000980068FFF787FD18B1A7
:10D6A000FFE70120019005E00098FFF75BFF0020F5
:10D6B0000190FFE7019802B080BD000088B007909C
:10D6C0000691079805900598006904900020039042
:10D6D000069B41F27C32C1F20002116819431160CD
:10D6E00008B0704785B00490049890F838104FF453
:10D6F0008060002908BF4FF40060039004984068E0
:10D700000021C4F2070108440290FFE70298406A32
:10D710000399084236D0FFE7049890F83800B0B972
:10D72000FFE700200190FFE701980499096B884208
:10D730000CD2FFE70298006A049B196A0A1D1A625C
:10D740000860FFE7019804300190EDE715E0002044
:10D750000090FFE700980499096B88420CD2FFE71C
:10D76000049A106A011D1162006802990862FFE7BD
:10D77000009804300090EDE7FFE70499886A0138CB
:10D780008862C3E705B0704780B588B00790002075
:10D7900005900798C0680490079840680290FFE7DA
:10D7A000049801282EDBFFE70498802806DBFFE7BA
:10D7B00007988068C0EBC010019005E004980799B5
:10D7C000896848430190FFE701980390049900207D
:10D7D0008029B8BF01208DF81B0005980299BDF87B
:10D7E0000C209DF81B3003F0010300F05FF8059852
:10D7F00001300590039902980844029004987F38FC
:10D800000490CDE708B080BD84B0039002910192EE
:10D81000002000900298007AC00718B9FFE70020A6
:10D8200000901CE00298007A8007002805D5FFE7E9
:10D83000009840F48030009010E00298007A0007D1
:10D84000002805D5FFE7009840F44030009004E040
:10D85000009840F400300090FFE7FFE7FFE70198F1
:10D8600028B1FFE7009840F400100090FFE702980D
:10D87000007A4007002805D5FFE7009840F4002013
:10D880000090FFE70298007AC006002805D5FFE760
:10D89000009840F480100090FFE70298017800980B
:10D8A00040EA01600090009804B0704785B0049091
:10D8B0000391ADF80A208DF80930049940F25C30EC
:10D8C000C1F2000000EBC100019021208DF803009F
:10D8D0009DF80900C00738B1FFE79DF8030040F04C
:10D8E00002008DF80300FFE79DF80300019908701E
:10D8F000BDF80A00019948800199002048700398FA
:10D900000199486005B0704780B588B007900691CE
:10D91000059204930020039002900498002800F0E0
:10D92000AF80FFE70498406807990862049881680F
:10D93000C06848430799486204980078079981F8BD
:10D94000380004988068079908630498C0680799AC
:10D9500088620498C0680799C8620498007828B95A
:10D96000FFE7039840F010000390FFE70498407829
:10D9700030B9FFE707980069807A04994870FFE79B
:10D980000498407801460191022804D0FFE70198ED
:10D99000032815D028E0039840F001000390069971
:10D9A000886A20F018008862049840680699086028
:10D9B00007998868049A9268B0FBF2F0486314E013
:10D9C000039840F0010003900699886A022262F3EE
:10D9D000C40088620498FFF7D7FE069940F25C30D5
:10D9E000C1F20000886500E0FFE70598807BC00772
:10D9F00028B1FFE7039840F0040003901CE005986D
:10DA0000C07BC007B8B1FFE7039840F0080003905F
:10DA100004984078022809D1FFE74EF25470C0F212
:10DA2000010040F26221FCF7B3FEFFE70498C068F2
:10DA300006990860FFE7FFE70498816802980843A9
:10DA400002900498C06802280BD3FFE7039840F0C7
:10DA5000220003900498C168029840EA01400290B5
:10DA6000FFE70698406840F6FF7188430299084333
:10DA7000069948600699C86A40F46020C862FFE7CA
:10DA8000039808B080BD000082B001900198406802
:10DA90000021C4F20701084400900199886A4A6B8A
:10DAA000801A886201998A68086A22F00302104489
:10DAB00008620198006A0099086002B0704700008F
:10DAC00080B588B006900591049203930598049957
:10DAD000039AFFF7FDFA04280DD1FFE7049901200E
